:020000040800F2
:100000007805002045010008DD170008611400088C
:10001000D9170008B10A00081726000800000000E0
:10002000000000000000000000000000BD1E0008ED
:10003000050C000800000000851D00083F20000896
:100040005F0100085F0100085F0100085F01000810
:100050005F0100085F0100085F0100085F01000800
:100060005F0100085F0100085F0100085F010008F0
:100070005F0100085F0100085F0100085F010008E0
:100080005F0100085F0100085F0100085F010008D0
:100090005F0100085F0100085F0100085F010008C0
:1000A0005F0100085F0100085F0100085F010008B0
:1000B000A12000085F0100085F0100085F0100083F
:1000C0005F0100085F0100085F0100085F01000890
:1000D0005F010008F521000809220008212200081C
:1000E0005F0100085F0100085F0100085F01000870
:1000F0005F0100085F0100085F0100085F01000860
:100100005F0100085F0100085F0100085F0100084F
:100110005F0100085F0100085F0100085F0100083F
:100120005F0100085F0100085F0100085F0100082F
:10013000DFF80CD000F006FB00480047D73000087D
:10014000780500200648804706480047FEE7FEE79E
:10015000FEE7FEE7FEE7FEE7FEE7FEE7FEE7FEE777
:10016000412000083101000830B505462A460B46FB
:1001700012F8010B13F8014B08B1A042F8D01CB1E2
:10018000002802D06D1CF1E7284630BD2DE9FE4F56
:10019000804681EA0300C00F0C46009021F0004128
:1001A00023F00045B8EB0200A94105D240462146A4
:1001B00090461C460B46024623F00040104347D0B1
:1001C000270DC7F30A00C3F30A510290401A0190A9
:1001D00040286BDAC3F3130040F4801B009892466A
:1001E00020B10023D2EB030A63EB0B0B01985946B5
:1001F000C0F14002504600F060F906460D465046F8
:100200005946019A00F078F910EB0800614100248A
:1002100087EA115284EAE7731A4340D0009A62B326
:10022000019A012A4FEA075215DC001B61EB02011B
:100230004FF0004202EA0752CDE90042001C41F5AE
:10024000801132462B4600F078F903B0BDE8F08FFC
:1002500040462146F9E7001B61EB0201001C41F515
:10026000801300185B412018A2F5001747EB03012B
:1002700040EAD570B6196D4111E06D084FEA3606B7
:1002800045EAC0754FEA0752001B61EB0201001CF2
:1002900041F5801149084FEA3000001951413246BA
:1002A0002B4603B0BDE8F04F00F038B900980122AA
:1002B00040000023D0EB020263EBE073009821467C
:1002C0004FEAE074B8EB000061EB0401E9E783F06A
:1002D00000435BE781F0004158E72DE9FE4F81EADA
:1002E000030404F0004421F0004100944FF0000B9F
:1002F00023F0004350EA01045ED052EA03045BD0CD
:10030000C3F30A54C1F30A552C44A4F2F334019404
:10031000A0FB0254C1F3130141F48011C3F3130392
:1003200043F4801301FB024400FB034E840A970A46
:1003300044EA815447EA8357A4FB076802958D0A73
:1003400005FB07854FEA932C04FB0C542705029DFF
:100350004FEA065847EA1637B5EB08056EEB070C6F
:10036000870E920E47EA811742EA8312A7FB020129
:10037000B6EB0B0164EB00042B0D43EA0C335E1863
:1003800044EB1C50DA465146E7FB0201C5F3130467
:100390004FEA0B3343EA14534FEA0432019C43EA19
:1003A0000603A4F10C040294009CCDE900B400F013
:1003B000C4F803B0BDE8F08F00200146F9E70EB5A0
:1003C000C10F80EAE0700844CA07002140F23343BD
:1003D0008DE80E000A460B4600F0AFF803B000BDF2
:1003E0000EB540F2334102910021CDE900110A46D9
:1003F0000B4600F0A2F803B000BDC1F30A5210B5DD
:10040000C1F3130140F2FF3341F480119A4201DA43
:10041000002010BD40F233439A42A2F2334203DC83
:10042000524200F059F810BD904010BD30B50B4657
:10043000014600202022012409E021FA02F59D4214
:1004400005D303FA02F5491B04FA02F52844151EE8
:10045000A2F10102F1DC30BD2DE9F05F054600207C
:1004600092469B4688460646814640241BE0284625
:1004700041464746224600F02FF853465A46C01AD6
:10048000914110D311461846224600F016F82D1A55
:1004900067EB01084F4622460120002100F00DF8CD
:1004A00017EB00094E41201EA4F10104DFDC484691
:1004B00031462A464346BDE8F09F202A04DB203A15
:1004C00000FA02F1002070479140C2F1200320FAA7
:1004D00003F3194390407047202A04DB203A21FAA5
:1004E00002F00021704721FA02F3D040C2F120024D
:1004F0009140084319467047202A06DBCB17203A63
:1005000041FA02F043EAE07306E041FA02F3D04018
:10051000C2F12002914008431946704710B5141EDD
:1005200073F1000408DA401C41F1000192185B41AC
:100530001A4301D120F0010010BD2DE9F04D924683
:100540009B4611B1B1FA81F202E0B0FA80F220329A
:100550009046FFF7B2FF04460F4640EA0A0041EA20
:100560000B0153465A46084313D0114653EA010083
:1005700019D0C8F140025046FFF7AEFF05460E46BF
:10058000504659464246FFF798FF084305D00120E0
:1005900004E020463946BDE8F08D0020054346EAD8
:1005A000E0762C4337430A986305E40AA0EB080081
:1005B0000022FD0A44EA47540A3002D500200146D1
:1005C000E9E7010510196941DDE9084500196941AC
:1005D000BDE8F04DA2E72DE9F04D81EA030404F0F7
:1005E000004B21F0004514464FF0000A23F0004173
:1005F00050EA050220D054EA01021DD0C5F30A5783
:100600000246C5F31303C1F31300C1F30A5640F4C5
:10061000801543F48013A7EB0608101BD64608F29A
:10062000FD3873EB050002D308F1010801E09218D0
:100630005B41B8F1000F03DA00200146BDE8F08D00
:1006400000204FF48011064684460EE0171B73EB22
:10065000050705D3121B63EB050306434CEA010CA7
:1006600049084FEA300092185B4150EA0107EDD18A
:1006700052EA030012D082EA040083EA050108432B
:1006800005D0101BAB4106D20122002306E0002258
:100690004FF0004302E06FF0010253101AEB060026
:1006A0004CEB085110EB0A0041EB0B01BDE8F04D9B
:1006B000FFF734BF70B521F0004303430CD0C1F302
:1006C0000A550024D5EB040564EB0403D617AD1AD4
:1006D000B34102DB0020014670BD201841EB0251FE
:1006E00070BDC1F30A52C1F3130140F2FF3341F46C
:1006F00080119A4202DA00200146704740F23343EB
:100700009A42A2F2334202DC5242FFF7E5BEFFF703
:10071000D4BE000030B5041E71F1000404DB4FF0BC
:100720000044404264EB0101141E73F1000405DB38
:100730001C464FF00043524263EB0403994208BF4A
:10074000904230BD064C074D06E0E06840F00103E2
:1007500094E8070098471034AC42F6D3FFF7ECFC5E
:10076000B03C0008D03C00082DE9F04D00231A46AB
:100770001B1A8A4103DB00200146BDE8F08DC1F35E
:100780000A52C1F3130141F480154FF0000BD10759
:1007900002D100186D41521E0027044640F2FF119D
:1007A000384601EB620A3E468046024600204FF47E
:1007B0008011FFF791FEC2197141BB1846EB010091
:1007C000B4EB030C75EB000C04D3E41A65EB0005E5
:1007D00017460E46241908F101006D418046342861
:1007E000E3DDF91946EB0600091BA84103D24FF0DF
:1007F000FF32134601E0002213461BEB070046EBD5
:100800000A51BDE8F04DFFF789BE00002DE9F04127
:10081000002600279CE0052F1FD2DFE807F0031F0A
:100820003B536700701CC6B24BA001F0F7FE01F00D
:10083000BBF8044674B9012001F093F804462CB9C2
:100840004BA001F0EBFE0026012706E0204601F058
:10085000EDFB02E0204601F0E9FB72E0701CC6B23D
:1008600049A001F0DBFE01F09FF8044674B90220B4
:1008700001F077F804462CB93DA001F0CFFE002628
:10088000022706E0204601F0D1FB02E0204601F0FD
:10089000CDFB56E043A001F0C1FE01F035F904465E
:1008A00024B947A001F0BAFE032707E04CA001F0ED
:1008B000B5FE204601F0BAFB00260027514800F0A3
:1008C00035FA3EE050A001F0A9FE01F0B3F904466C
:1008D00024B955A001F0A2FE042703E0002720461A
:1008E00001F0A4FB474800F021FA2AE056A001F0ED
:1008F00095FE5EA001F092FE00BF00F0BFFC054631
:10090000B5F5967FF9DA2946022001F0C7F90446C9
:1009100094B95AA001F082FE604801F0EFF96048F6
:1009200000885E4A1288811A5EA001F077FE5E4858
:1009300000F0FCF9BDE8F0810027204601F076FBCD
:1009400000BF00BF594800F0F1F9052E00D100E0CA
:1009500061E700BF00BFEDE7506C65617320746F05
:100960007563682066696E676572210D0A00000074
:1009700046696E6765727072696E7420636F727219
:100980006563740D0A000000506C65617320746F1C
:100990007563682066696E67657220616761696E5C
:1009A000210D0A00436F6D70617265207477696371
:1009B000652066696E6765727072696E740D0A00F3
:1009C00054776963652066696E6765727072696ED7
:1009D00074206172652073616D650D0A000000006E
:1009E000436F6D70617265206661696C2C706C6517
:1009F000617320746F75636820616761696E210D92
:100A00000A00000040420F0047656E657261746520
:100A10002066696E6765727072696E742074656DA8
:100A2000706C6174650D0A0047656E65726174656E
:100A30002066696E6765727072696E742073756383
:100A4000636573730D0A0000496E747075742049F4
:100A50004420616E64207361766520776974682034
:100A6000454E544552210D0A00000000303D3C2007
:100A70004944203C3D323939000000004164642083
:100A800066696E6765727072696E742073756363F0
:100A90006573732121210D0A000000003C00002035
:100AA0006C0100202564000060E3160000350C0096
:100AB00000BFFEE721B1026842F00102026004E0DB
:100AC00002684FF6FE731A400260704710B50022AC
:100AD000026847F6F0739A430C6A8B6823430C69EB
:100AE00023434C6923438C692343CC6923434C6AD9
:100AF00023438C6A23431A430260CB6843600B682C
:100B000083604B68C36010BD4160704700B58BB017
:100B10000121084601F038F91D4800901D48019058
:100B20001020029000200390049080200590002067
:100B300006900790202008904FF440500990002024
:100B40000A9069461448FFF7C1FF01211248FFF7D8
:100B5000B1FF0F4800900F48203001900020029014
:100B6000402003904FF44050099069460A481438D9
:100B7000FFF7ACFF012108481438FFF79BFF012263
:100B8000C0210348001F01F04DFC0BB000BD000068
:100B900004440040DC0000208000024010B540F218
:100BA0002441134801F054FC00B312A001F036FDBB
:100BB0001248B0F8480040F400401049A1F848003D
:100BC00000210F48FFF776FF40210D48FFF79CFFFB
:100BD00001210B48FFF76EFF40F22441044801F069
:100BE00029FB034800880248001D008810BD000052
:100BF00000440040696E740D0A000000D40000201B
:100C00006C0002407047000010B513A001F006FD13
:100C100016A001F003FD1CA001F000FD4CF25030C5
:100C200000F084F800F080FE04461CB91AA001F020
:100C3000F5FC02E0204601F0F9F91F4800F076F8D3
:100C40001E4801F05BF81E4800881C4A1288811A71
:100C50001CA001F0E3FC10BD44656C657465206662
:100C6000696E6765727072696E740000496E7075A6
:100C70007420494420616E6420746F756368204558
:100C80006E74657221000000303D3C204944203CD8
:100C90003D3239390000000044656C65746520669A
:100CA000696E6765727072696E74207375636365CF
:100CB000737321212100000060E316003C00002036
:100CC0006C0100202564000030B514480068144A07
:100CD000B0FBF2F0411EB1F1807F00D31DE021F0A6
:100CE0007F40401E4FF0E022506150170F22002835
:100CF00007DA13071D0E0B4B00F00F04241F1D55C0
:100D000003E013071C0E084B1C5400BF00204FF0DB
:100D1000E02290610720106100BF30BD000000207C
:100D200040420F0018ED00E000E400E010490968BF
:100D3000104AB1FBF2F1491E4FF0E022516100214F
:100D400091610521116108E0401E00BF4FF0E021D4
:100D5000096901F480310029F8D00028F4D14FF05E
:100D6000E021096921F480314FF0E02211617047E0
:100D70000000002040420F00014621293ED2DFE85A
:100D800001F011131517191B1D1F212325273D3DA8
:100D90003D3D292B3D3D3D2D3D3D2F313335373DEB
:100DA0003D393B0017A02BE017A029E01AA027E04F
:100DB0001EA025E022A023E029A021E030A01FE012
:100DC00036A01DE043A01BE045A019E048A017E0B5
:100DD0004BA000BF53A013E056A011E059A00FE0B4
:100DE00061A00DE064A00BE066A009E069A007E047
:100DF0006DA005E071A003E073A001E075A000BF45
:100E000000BF70474F4B0000CAFDBEDDB0FCBDD334
:100E1000CAD5B4EDCEF30000B4ABB8D0C6F7C9CF95
:100E2000C3BBD3D0CAD6D6B800000000C2BCC8EB42
:100E3000D6B8CEC6CDBCCFF1CAA7B0DC000000004A
:100E4000D6B8CEC6CDBCCFF1CCABB8C9A1A2CCAB85
:100E5000B5ADB6F8C9FAB2BBB3C9CCD8D5F7000066
:100E6000D6B8CEC6CDBCCFF1CCABCAAAA1A2CCAB72
:100E7000BAFDB6F8C9FAB2BBB3C9CCD8D5F70000F1
:100E8000D6B8CEC6CDBCCFF1CCABC2D2B6F8C9FA7B
:100E9000B2BBB3C9CCD8D5F700000000D6B8CEC6D7
:100EA000CDBCCFF1D5FDB3A3A3ACB5ABCCD8D5F7B2
:100EB000B5E3CCABC9D9A3A8BBF2C3E6BBFDCCABB1
:100EC000D0A1A3A9B6F8C9FAB2BBB3C9CCD8D5F79B
:100ED00000000000D6B8CEC6B2BBC6A5C5E400006F
:100EE000C3BBCBD1CBF7B5BDD6B8CEC60000000092
:100EF000CCD8D5F7BACFB2A2CAA7B0DC00000000A8
:100F0000B7C3CECAD6B8CEC6BFE2CAB1B5D8D6B777
:100F1000D0F2BAC5B3ACB3F6D6B8CEC6BFE2B7B658
:100F2000CEA70000C9BEB3FDC4A3B0E5CAA7B0DC1C
:100F300000000000C7E5BFD5D6B8CEC6BFE2CAA73D
:100F4000B0DC0000BBBAB3E5C7F8C4DAC3BBD3D08A
:100F5000D3D0D0A7D4ADCABCCDBCB6F8C9FAB2BB09
:100F6000B3C9CDBCCFF10000B6C1D0B420464C41CE
:100F7000534820B3F6B4ED00CEB4B6A8D2E5B4ED34
:100F8000CEF30000CEDED0A7BCC4B4E6C6F7BAC527
:100F900000000000BCC4B4E6C6F7C9E8B6A8C4DACD
:100FA000C8DDB4EDCEF30000BCC7CAC2B1BED2B337
:100FB000C2EBD6B8B6A8B4EDCEF30000D6B8CEC614
:100FC000BFE2C2FA00000000B5D8D6B7B4EDCEF348
:100FD00000000000C4A3BFE9B7B5BBD8C8B7C8CFED
:100FE000C2EBD3D0CEF3000010B502E013A001F0A5
:100FF00015FB164800F0F6FC0028F7D1144800F065
:101000007DFE144908700846007820B1124800F0AF
:1010100099FD104908700F48007848B90E48827849
:1010200000880B4B1B88C11A0CA001F0F7FA03E0F3
:101030000848007800F0FAFF10BD000048616E64B7
:101040005368616B65696E670D0A00003800002007
:101050003C0000203E0000206C01002052656D61C4
:10106000696E4E756D3A2564202020204C657665AA
:101070006C3A25640000000010B52348007820B1C8
:10108000012826D002283CD135E02048006820B154
:1010900002F014FD1EA001F0C1FA01F0F7FF1E4896
:1010A0000078042808D11C48407800F0010018B1ED
:1010B0000120154908700BE0174800780D2807D16A
:1010C0001548407800F0010010B102200E49087068
:1010D00017E000F0D3F840F2AF21884204D1FFF7C7
:1010E00095FB0EA001F09AFA0A20FFF71FFE0020E0
:1010F0000549087005E0FFF787FD002002490870E8
:1011000000BF00BF10BD00003F00002018012142B9
:10111000776169746500000028000020656E7472B4
:10112000790D0A002DE9F84307460D4614461E4680
:10113000DDF820800121384600F046FE8DF803805E
:10114000ADF800408DF802606946284600F006F8C8
:101150002146284600F08FF8BDE8F8832DE9F041DC
:10116000024600250026002000230024002791F8D5
:1011700003C00CF00F0591F803C00CF0100CBCF18B
:10118000000F03D091F802C04CEA050591F800C0A9
:10119000BCF1000F31D0146800202BE04FF0010C9F
:1011A0000CFA00F3B1F800C00CEA03069E4220D10D
:1011B00083004FF00F0C0CFA03F7BC4305FA03FC55
:1011C0004CEA040491F803C0BCF1280F06D14FF09B
:1011D000010C0CFA00FCC2F814C00AE091F803C03C
:1011E000BCF1480F05D14FF0010C0CFA00FCC2F81D
:1011F00010C0401C0828D1D31460B1F800C0BCF165
:10120000FF0F34DD546800202EE000F1080C4FF091
:10121000010808FA0CF3B1F800C00CEA03069E427C
:1012200021D183004FF00F0C0CFA03F7BC4305FAF1
:1012300003FC4CEA040491F803C0BCF1280F05D16B
:1012400000F1080C08FA0CF8C2F8148091F803C0F9
:10125000BCF1480F07D100F1080C4FF0010808FA63
:101260000CF8C2F81080401C0828CED35460BDE8AA
:10127000F081416170470161704700002DE9F04F36
:1012800087B04FF000090024D5E001F0FFFE704860
:101290000078042836DA6E480078002832D06C488E
:1012A000407800F0010068B3C4F10200FFF787F84E
:1012B000824652460B460020664901F013FFCDE9F5
:1012C000020163490878FFF78BF8CDE90001DDE9F9
:1012D0000223FFF702F8074688464846FFF780F8E2
:1012E0003A464346CDE90401FEF750FF0546FFF7B5
:1012F00084F81FFA80F9601CC4B2494656A001F078
:101300008DF98AE052480078082837DA504800788A
:10131000042833DD4E48407800F0010070B3C4F17A
:101320000200FFF74CF807463A460B4600204949B1
:1013300001F0D8FE05460E4645490978481EFFF7DC
:101340003EF82A463346CDE90001FEF7C6FFCDE957
:1013500004014846FFF744F8CDE90201DDE9042322
:10136000FEF714FF8246FFF748F81FFA80F9601C69
:10137000C4B2494638A001F051F94EE03448007833
:101380000C2839DA32480078082835DD30484078B2
:1013900000F0010078B3C4F10200FFF710F8024634
:1013A0000B46CDE9000100202A4901F09BFE824650
:1013B0008B4627490978881EFFF701F852465B469D
:1013C000CDE90201FEF789FF074688464846FFF748
:1013D00007F805463A464346FEF7D8FECDE9040134
:1013E000FFF70BF81FFA80F9601CC4B249461AA037
:1013F00001F014F911E0FFE7154800780E280CD130
:101400001348407800F0010038B11FFA89F9601CD8
:10141000C4B2494610A001F001F944F62060FFF77C
:1014200085FC032C07D149460BA001F0F7F848468C
:1014300007B0BDE8F08F032CFFF627AF04484078D3
:1014400000F0010010B94FF6FF70F1E700BFEFE7C1
:10145000280000200000244025640D0A0000000040
:1014600000BFFEE708B51020032320220D4900909D
:101470000820FFF757FE4FF4A06000F04BFA00F091
:10148000EFFEFFF743FB00F0D3F8FFF71DFC03224C
:1014900001211C2000F0A3F941F61F41C72000F0F4
:1014A0000EFE08BD000C014010B502A001F0B6F818
:1014B00010BD0000676F6F640D0A00007CB5054623
:1014C000EF208DF8000001208DF801001C48006815
:1014D000000E8DF802001A480068000C8DF8030019
:1014E00017480088000A8DF80400154800788DF828
:1014F000050007208DF8060000208DF8070011492F
:10150000A1F8480016E04FF47A70FFF70FFC0D4881
:10151000B0F8480000F4004060B100200949A1F88B
:101520004800694607482830FEF71EFE04460CB105
:1015300020467CBD681E80B2051EE4D100BFF8E7DE
:1015400038000020D400002038B5002500241020E9
:1015500003230F22354900908020FFF7E3FD482048
:101560000323F022314900908020FFF7DBFD0F219B
:101570002E48FFF780FEF0212C48FFF77AFE01206D
:10158000FFF7D4FB29480830006800F0F005102D63
:1015900006D0202D06D0402D06D0802D08D105E0A4
:1015A000012407E0022405E0032403E0042401E011
:1015B000002400BF00BF482003230F221B490090D6
:1015C0008020FFF7AFFD10200323F0221749009081
:1015D0008020FFF7A7FDF0211448FFF74CFE0F21F4
:1015E0001248FFF746FE0120FFF7A0FB0F48083026
:1015F000006800F00F05012D06D0022D06D0042D45
:1016000007D0082D0DD108E0E4B20CE0201DC4B2D3
:1016100009E004F10800C4B205E004F10C00C4B212
:1016200001E0002400BF00BF204638BD001C01407F
:1016300008B5102003230F220A4900908020FFF7ED
:1016400071FD48200323F022064900908020FFF717
:1016500069FD0F210348FFF70EFEF0210148FFF757
:1016600008FE08BD001C01407CB5054600243DB9BC
:1016700042480068019000204049487001987CBDB4
:1016800001F018FD04463E48007830B101282CD006
:10169000022831D0032867D158E02CB1394800889E
:1016A000401C3849088010E0002036490880364840
:1016B0000088401C3449088008460088042804DD5E
:1016C000002032490870304908802E4800880228DE
:1016D0000ADD00202B4908800120294908700020DC
:1016E00026498870294804703FE002202449087088
:1016F00001202249487038E02CB922480088401C5B
:101700002049088014E000201E4908801E480088F7
:10171000401C1D49088008460088C82801DDC820F3
:10172000088019480088642802DB02201349887069
:1017300014480088022808DD002012490880032090
:101740000F49087000200D4988700EE000200C49F8
:1017500008700D480088322802DA01200749887095
:1017600000200949088000E000BF00BF074800785A
:101770000249087008460068009080E732000020A7
:101780002C0000202E000020300000203600002019
:1017900010B50020064908600648FFF7C7FA012087
:1017A0000549C1F894010348FFF7C0FA10BD0000D5
:1017B0009481214220A107000080214200BF0549F9
:1017C000098801F040010029F9D00249091D08806B
:1017D000704700000044004000BFFEE77047F8B5C6
:1017E00006460C4615468DF800608DF801408DF8D0
:1017F000025001208DF80300684600F053F8F8BD50
:1018000008B54FF4A06000F085F825208DF80000A1
:1018100001208DF801008DF802008DF80300684664
:1018200000F040F8012240F224411B4800F03AFE4B
:101830004FF4A06000F06EF826208DF80000012023
:101840008DF8010002208DF8020001208DF80300C0
:10185000684600F027F8012240F224410F4800F0CA
:1018600021FE4FF4A06000F055F827208DF800000D
:1018700001208DF8010003208DF8020001208DF871
:101880000300684600F00EF8012240F224410448AB
:1018900000F008FE08BD0000003801400044004090
:1018A0000048004070B5002100230F22C47804B323
:1018B000154C246804F4E064C4F5E064210AC1F125
:1018C0000403CA40447804FA03F1847814402143A5
:1018D00009010E4C0678A155047804F01F05012477
:1018E000AC4005786D11AD0005F1E025C5F800416B
:1018F00009E0047804F01F050124AC40044D06788B
:10190000761145F8264070BD0CED00E000E400E0E3
:1019100080E100E002490143024A11607047000083
:101920000000FA050CED00E070B500F0F2FA00F0EE
:10193000C7FA012000F0E7FA032000F0F2FA0D20C8
:1019400000F0F9FA1126304600F0D4FA4FF4FA60AC
:10195000FFF7B4FD05460DB16C7A00E0FF24204688
:1019600070BD2DE9F041054600F0D3FA00F0A8FA69
:10197000012000F0C8FA042000F0D3FA022000F0A1
:10198000DAFA2846FFF71AFFEF1D384600F0B2FAE0
:101990004FF4FA60FFF792FD06460EB1747A00E04C
:1019A000FF242046BDE8F08170B500F0B2FA00F0E7
:1019B00087FA012000F0A7FA032000F0B2FA012014
:1019C00000F0B9FA0526304600F094FA4FF4FA60B8
:1019D000FFF774FD05460DB16C7A00E0FF24204648
:1019E00070BD000010B5044600F093FA00F068FAEC
:1019F0000120FFF7E3FE0020FFF7E0FE0020FFF7E5
:101A0000DDFE1B48FFF792F91A48B0F8480000F4D1
:101A1000004050B3174890F82800EF2821D115480E
:101A200090F8290001281CD1124890F82E000728B0
:101A300017D1104890F82A0001060E4890F82B00A4
:101A400001EB00410B4890F82C0001EB0021094804
:101A500090F82D000844206000200649A1F84800B5
:101A600010BD00200349A1F848000120F8E700005C
:101A7000400D0300D40000202DE9F04781460D46BB
:101A800016461F4600F045FA00F01AFA012000F051
:101A90003AFA082000F045FA1B2000F04CFA4846BC
:101AA000FFF78CFE2812FFF789FEE8B2FFF786FEEB
:101AB0003012FFF783FEF0B2FFF780FE09F1240039
:101AC00000EB2520E9B2084400EB2620F1B200EB40
:101AD000010A504600F00EFA4FF4FA60FFF7EEFCF0
:101AE000044664B194F80980E07AA17A00EB012001
:101AF0003880607B217B00EB0120788001E04FF093
:101B0000FF084046BDE8F08770B500F002FA00F02B
:101B1000D7F9012000F0F7F9032000F002FA0320C2
:101B200000F009FA0726304600F0E4F94FF4FA60B5
:101B3000FFF7C4FC05460DB16C7A00E0FF24204697
:101B400070BD00002DE9F041054600F0E2F900F01B
:101B5000B7F9012000F0D7F9032000F0E2F90F20D7
:101B600000F0E9F91327384600F0C4F94FF47A7011
:101B7000FFF7A4FC0446BCB1667AE07BA17B00EBD6
:101B800001202880607CA870A07C0006E17C00EB2E
:101B90000140217D00EB0120617D08446860E07D0B
:101BA0002872607E687200E0FF26A6B929880FA01F
:101BB00000F034FDA97813A000F030FD15A069688D
:101BC00000F02CFD687A4FF4165200FB02F114A0CD
:101BD00000F024FD07E03046FFF7CEF8804641468E
:101BE00012A000F01BFD3046BDE8F0810D0AC4A331
:101BF000BFE9D7EEB4F3D6B8CEC6C8DDC1BF3D2528
:101C0000640000000D0AB6D4B1C8B5C8BCB63D2505
:101C1000640000000D0AB5D8D6B73D257800000055
:101C20000D0AB2A8CCD8C2CA3D2564000D0A25739E
:101C30000000000070B500F06CF900F041F90120DF
:101C400000F061F9032000F06CF9052000F073F951
:101C50000926304600F04EF94FF4FA60FFF72EFCEB
:101C600005460DB16C7A00E0FF24204670BD0000EF
:101C700008B50121042000F0A7F84020ADF80000CD
:101C800028208DF8030003208DF8020069460248E1
:101C9000FFF764FA08BD0000000801402DE9F0419B
:101CA00006460C4600F035F900F00AF9012000F074
:101CB0002AF9062000F035F9062000F03CF93046FC
:101CC000FFF77CFD2012FFF779FDE0B2FFF776FD0C
:101CD00006F10D0000EB2420E1B200EB01084046C4
:101CE00000F008F94FF4FA60FFF7E8FB07460FB180
:101CF0007D7A00E0FF252846BDE8F0812DE9F0411E
:101D0000064600F006F900F0DBF8012000F0FBF8D1
:101D1000032000F006F91D2000F00DF921273846B8
:101D200000F0E8F84FF4FA60FFF7C8FB044634B15E
:101D3000657AE07AA17A00EB0120308000E0FF258F
:101D40003DB9E07AA27A00EB022107A000F066FC20
:101D500007E02846FFF710F88046414607A000F04C
:101D60005DFC2846BDE8F0810D0AD3D0D0A7D6B8D7
:101D7000CEC6B8F6CAFD3D25640000000D0A2573E5
:101D8000000000007047000029B1064A5269024372
:101D9000044B5A6104E0034A52698243014B5A6181
:101DA000704700000010024029B1064AD269024380
:101DB000044BDA6104E0034AD2698243014BDA61E1
:101DC000704700000010024029B1064A92690243A0
:101DD000044B9A6104E0034A92698243014B9A6181
:101DE000704700000010024030B50021002200249E
:101DF00000232D4D6D6805F00C0121B1042905D09B
:101E0000082923D105E0294D056022E0274D056012
:101E10001FE0254D6D6805F47012234D6D6805F4C3
:101E20008034022505EB92421CB9214D55430560D3
:101E30000BE01D4D6D6805F400351DB11C4D55437B
:101E4000056002E0194D5543056002E0174D05603D
:101E500000BF00BF144D6D6805F0F0010909154D74
:101E60006B5C0568DD4045600F4D6D6805F4E06111
:101E7000090A104D6B5C4568DD4085600A4D6D6850
:101E800005F46051C90A0B4D6B5C4568DD40C560C7
:101E9000054D6D6805F44041890B074D6B5CC568C5
:101EA000B5FBF3F5056130BD0010024000127A0069
:101EB00000093D00140000202400002070470000AD
:101EC00010B50B490968080EFFF778FC0848006850
:101ED000C0F30740FFF772FC05480088C0F30720F5
:101EE000FFF76CFC02490878FFF768FC10BD0000A2
:101EF0003800002010B504462012FFF75FFCE0B266
:101F0000FFF75CFC10BD10B504462046FFF756FCF9
:101F100010BD10B5EF20FFF751FC0120FFF74EFC7C
:101F200010BD10B50446C4F30720FFF747FCE0B22C
:101F3000FFF744FC10BD10B504462046FFF73EFCF9
:101F400010BD10B500F002F810BD00000CB5002067
:101F5000019000903348006840F4803031490860B7
:101F600000BF3048006800F4003000900198401C29
:101F70000190009818B90198B0F5A06FF1D12948E7
:101F8000006800F4003010B10120009001E0002052
:101F900000900098012843D12348006840F01000C9
:101FA000214908600846006820F0030008600846E0
:101FB000006840F0020008601A484068194948600B
:101FC0000846406848600846406840F480604860C1
:101FD0000846406820F47C1048600846406840F499
:101FE000E81048600846006840F08070086000BF54
:101FF0000C48006800F000700028F9D009484068DB
:1020000020F00300074948600846406840F002009D
:10201000486000BF0348406800F00C000828F9D170
:102020000CBD0000001002400020024070B50446C4
:102030002046FEF7A1FE054600F0F0FA70BD70479D
:1020400010B51348006840F00100114908600846C7
:102050004068104908400E494860084600680E492B
:1020600008400B4908600846006820F4802008609A
:102070000846406820F4FE0048604FF41F00886066
:10208000FFF75FFF4FF000600449086010BD0000DB
:10209000001002400000FFF8FFFFF6FE08ED00E030
:1020A00008B50121880700F038F838B10120FFF7A2
:1020B000DBFA00900121880700F020F808BD3EB54A
:1020C00005460C4601210846FFF76EFEADF80450A8
:1020D0000020ADF80200ADF80040ADF806006946FA
:1020E0004FF0804000F034F801221146900700F0D4
:1020F00025F80121880700F004F83EBDCA4302829A
:10210000704721B1028842F00102028004E0028897
:102110004FF6FE731A400280704730B50246002029
:1021200000230024158A05EA0103958905EA0104C4
:1021300013B10CB1012000E0002030BD1AB1838939
:102140000B43838102E083898B43838170470000C6
:10215000002202881D4B98420ED01D4B98420BD096
:10216000B0F1804F08D01B4B984205D01A4B9842D3
:1021700002D01A4B984204D14FF68F731A404B8805
:102180001A43174B984207D0164B984204D04FF68B
:10219000FF431A40CB881A4302808B8883850B88C3
:1021A00003850A4B98420BD0094B984208D00E4B3E
:1021B000984205D00D4B984202D00D4B984201D168
:1021C0000B7A03860123838270470000002C0140B4
:1021D000003401400004004000080040000C0040B2
:1021E0000010004000140040004001400044014045
:1021F0000048014010B502A001F0A8FC10BD00008D
:10220000696E74310D0A000010B503A001F0B4FC32
:10221000FEF7C4FC10BD0000696E74320D0A0000A8
:1022200010B502A001F0BEFC10BD0000696E743351
:102230000D0A000001F40072B2F5007F00D100BF6A
:10224000CA430280704721B1828942F400528281E0
:1022500004E082894DF6FF731A40828170470000C6
:1022600000B585B04FF4165066490860002088809C
:102270000C20C88001210420FFF7A6FD012188035E
:10228000FFF7A2FD4FF40070ADF8000018208DF8A4
:10229000030003208DF8020069465B48FEF75EFFED
:1022A0004FF48060ADF8000004208DF8030069460B
:1022B0005548FEF753FF5348006801900020ADF8E1
:1022C0000800ADF80A004F488088ADF80C004D4872
:1022D000C088ADF80E000020ADF8100001A94B48F1
:1022E00000F006F9FFF78CFA01214848FFF7ABFF31
:1022F0004FF4E13046490860002088800C20C880F7
:1023000001210420FFF760FD01214804FFF74CFD87
:102310000420ADF8000018208DF8030003208DF88C
:10232000020069463848FEF719FF0820ADF80000A2
:1023300004208DF8030069463348FEF70FFF344848
:10234000006801900020ADF80800ADF80A003048A0
:102350008088ADF80C002E48C088ADF80E00002033
:10236000ADF8100001A92B4800F0C2F8012129485E
:10237000FFF769FF4FF4E1302249086000208880B0
:102380000C20C88001210820FFF71EFD01218804D0
:10239000FFF70AFD4FF48060ADF8000018208DF8BB
:1023A000030003208DF8020069461B48FEF7D6FEA5
:1023B0004FF40060ADF8000004208DF8030069467A
:1023C0001548FEF7CBFE1548006801900020ADF8D7
:1023D0000800ADF80A0011488088ADF80C000F48DD
:1023E000C088ADF80E000020ADF8100001A90C481F
:1023F00000F07EF801210A48FFF725FFFFF700FAF9
:1024000005B000BD880000200008014000380140F0
:10241000D400002000440040000C014020010020B6
:10242000004800401AB1838A0B43838202E0838A0A
:102430008B438382704702460020B1F5007F00D1B4
:1024400000BF13880B400BB1012000E00020704753
:1024500070B50246002400230025002040F66A16CD
:10246000B14200D100BFC1F3421501F01F030126A4
:1024700006FA03F3012D02D19689334006E0022DBE
:1024800002D1168A334001E0968A33400C120126AD
:1024900006FA04F41688344013B10CB1012000E0B0
:1024A000002070BDF0B50346002400260025002062
:1024B00040F66A17B94200D100BF1846C1F3421472
:1024C00001F01F06012707FA06F5012C01D10C3097
:1024D00004E0022C01D1103000E014301AB107687A
:1024E0002F43076002E00768AF430760F0BD0000BC
:1024F0002DE9F04786B005460E460024A24600BFEF
:10250000A1460027B08900B100BF2F462C8A4CF6A7
:10251000FF700440F08804432C82AC894EF6F3101F
:102520000440B08831890843718908430443AC8171
:10253000AC8A4FF6FF400440B0890443AC8201A846
:10254000FFF752FC1F48874202D1DDF810A001E0DE
:10255000DDF80CA0A88900F4004040B10AEBCA00E5
:1025600000EB0A1031684900B0FBF1F807E00AEB14
:10257000CA0000EB0A1031688900B0FBF1F8642052
:10258000B8FBF0F004012009642101FB1089A8893F
:1025900000F4004040B1322000EBC900B0FBF1F084
:1025A00000F00700044308E0322000EB091064212A
:1025B000B0FBF1F000F00F0004432C8106B0BDE841
:1025C000F087000000380140C1F3080282807047A4
:1025D00070B504460D4629462046FFF7F5FF00BFBB
:1025E00080212046FFF727FF0028F9D070BD70B585
:1025F00005460C4600BF14F8011B2846FFF7E8FF0C
:1026000020780028F7D100BF40212846FFF713FFAC
:102610000028F9D070BD00BFFEE700000FB4054BE5
:1026200010B503A9044A029800F07CF910BC5DF8CB
:1026300014FB00005D3000084000002037B5144650
:102640000846064B6A46214600F06CF90446694686
:10265000002000F0FEFC20463EBD00005330000884
:10266000490050EAC12018BF04204A0D18BF40F0AD
:10267000010040F2FF72B2EB515F08BF40F0020070
:10268000012808BF052070472DE9F0414F1E00EBDF
:10269000C7010446D1E9000115461E4637F006027F
:1026A0000DD02A463346FDF718FE7F1E04EBC70304
:1026B000D3E90023FDF76AFD37F00602F1D1022FBE
:1026C00025D0042F13D0062F18BFBDE8F0812A466D
:1026D0003346FDF702FED4E90A23FDF757FD2A46EB
:1026E0003346FDF7FAFDD4E90823FDF74FFD2A46EE
:1026F0003346FDF7F2FDD4E90623FDF747FD2A46F0
:102700003346FDF7EAFDD4E90423FDF73FFD2A46F1
:102710003346FDF7E2FDD4E90223FDF737FD2A46F3
:102720003346FDF7DAFDD4E90023BDE8F041FDF7BB
:102730002DBD00000022134610460149FDF74BBF96
:102740000000F03FFDF722BD00221346104611465F
:10275000FDF741BF40F2013200204FF0E041FDF7AC
:10276000A9BF0000024A00201107FDF7A3BF000027
:1027700001FDFFFF02E008C8121F08C1002AFAD1BC
:1027800070477047002001E001C1121F002AFBD1F1
:1027900070470000014908607047000044000020B5
:1027A0002DE9FF5F82B00021DDE90430020DDDF884
:1027B00040B0034318D044F61050A2F2FF32424317
:1027C0001514119801281FD0A5EB0B00401C5FEADF
:1027D000000A4FF000064E4FDFF83891B0465046E1
:1027E00015D5CAF1000413E0119801244AA3012869
:1027F00001D16FEA0B010298119AC0E90031C0E9DA
:10280000024206B0BDE8F09FCBF10000DFE70446CE
:102810000021404A491842EB0450CDE9001012E073
:10282000E00707D032463B4640464946FDF755FD96
:102830008046894632463B4610461946FDF74DFD17
:1028400006460F466410002CEAD1DDE90401DDE9FB
:102850000023BAF1000F06DAFDF73FFD42464B4672
:10286000FDF73BFD05E0FDF7B6FE42464B46FDF7A2
:10287000B2FE04460E460022284BFDF74BFF03D85C
:102880004FF0FF30014607E00022254B204631463D
:10289000FDF77CFCFDF725FF102409E0002C0ADB86
:1028A0000A220023FDF7D8FD039B30321A55641E1F
:1028B00050EA0102F2D1641C039AC4F111031444DA
:1028C000119A012A03D0012208430DD10AE00843DE
:1028D00004D000204FF0110B119072E7A3EB0B0511
:1028E0006D1E0DE05B4504DD4FF0000205F10105B2
:1028F00004E003DA4FF00002A5F10105002AECD054
:1029000002981199C0E90231C0E9004579E7000059
:10291000000014400000F03F300000000000F043D1
:102920000000E03F2DE9FF4F95B09B4689460646E3
:1029300000250FE2252877D100242746F84A0121F7
:10294000059400E0044316F8013F203B01FA03F030
:102950001042F7D130782A2811D06FF02F03307849
:10296000A0F13002092A16D8059A44F0020402EBBD
:10297000820203EB42021044761C0590EFE759F8FF
:10298000042B0592002A03DA504244F400540590C7
:1029900044F00204761C30782E2816D116F8010F68
:1029A00044F004042A280DD06FF02F023078A0F1F3
:1029B0003003092B09D807EB870302EB4303C71841
:1029C000761CF3E759F8047B761C30786C280FD01E
:1029D00006DC4C2817D068280DD06A2814D104E0F2
:1029E000742810D07A280FD10DE044F400140AE0C6
:1029F00044F4801401E044F440147278824202D11D
:102A000004F58014761C761C307866280BD013DC15
:102A1000582877D009DC002875D04528F6D04628FC
:102A2000F4D047281AD19DE118E0632835D06428F6
:102A300079D0652812D195E1702873D008DC672819
:102A4000F1D069286FD06E280DD06F2806D1B5E07F
:102A500073282CD0752875D0782874D05A461799C9
:102A600090476D1C75E1C4F30250022809D0032879
:102A70000DD0D9F8001004280DD00D6009F104091B
:102A800067E1D9F80010EA17C1E90052F6E7D9F872
:102A900000100D80F2E70D70F0E719F8041B8DF8B7
:102AA000001000208DF80100EA46012003E059F8EB
:102AB00004AB4FF0FF3061074FF0000102D40DE08E
:102AC00008F101018846B9420FDA8045F8DB1AF8AF
:102AD00008100029F4D108E008F10101884681427C
:102AE000FADB1AF808100029F6D105985B46A0EB2E
:102AF000080721463846179A00F094FA284400EB5C
:102B0000080507E04DE029E10DE01AF8010B5A46EF
:102B100017999047B8F10108F7D25B46214638462D
:102B2000179A13E142E00A220092C4F302524FF0D6
:102B3000000A022A08D059F804CB032A4FEAEC71A4
:102B40000AD00DE029E02AE009F1070121F007028F
:102B5000F2E802C1914609E00FFA8CFC4FEAEC71F1
:102B6000042A03D14FFA8CFC4FEAEC71002907DAF2
:102B70000A460021DCF1000C61EB02012D2202E08B
:102B8000220504D52B228DF80420012203E0E20760
:102B900001D02022F7E7904659E00A2102E01022F6
:102BA0000DE010214FF0000A00910BE010224FF0D1
:102BB000000A44F004040827009203E008224FF0C2
:102BC000000A0092C4F30252022A05D059F804CB3D
:102BD0000021032A08D009E009F1070121F00702CA
:102BE000F2E802C1914605E01FFA8CFC042A01D1EB
:102BF0000CF0FF0C4FF00008220728D5702806D0F3
:102C0000009B83F0100353EA0A0305D00EE0402234
:102C10008DF80420012208E05CEA010206D030228F
:102C20008DF804208DF8050002229046009B83F069
:102C3000080353EA0A030AD15CEA010201D16207E0
:102C400005D530228DF804204FF001087F1E58284A
:102C500004D034A003900EA802900DE036A0F9E74E
:102C600053466046009AFDF7F7FB84460398825C62
:102C70000298401E029002705CEA0100F0D10298B6
:102C800006A9081A00F1200A600702D524F480344E
:102C900000E00127574502DDA7EB0A0000E0002015
:102CA00000EB0A01009005984144401A0590E003AA
:102CB00006D45B462146179A059800F0B3F90544FF
:102CC000002706E001A85A46C05D179990476D1C81
:102CD0007F1C4745F6DBE0030CD55B462146179A7F
:102CE000059800F09FF9054404E030205A461799F2
:102CF00090476D1C0099481E00900029F5DC08E003
:102D0000029802995A460078491C029117999047F7
:102D10006D1CBAF10001AAF1010AF1DC65E10000C5
:102D200009280100303132333435363738396162A1
:102D30006364656600000000303132333435363765
:102D400038394142434445460000000000F058F93C
:102D50000544761C307800287FF4ECAD19B0284685
:102D6000BDE8F08F620700D4062709F1070222F0C0
:102D7000070CFCE80223E14603F000485FEA080C78
:102D800002D00FF2702C0DE05FEA045C02D50FF266
:102D9000682C07E05FEAC47C02D00FF2602C01E0EF
:102DA000AFF2700C4FF0FF3823F00043CDF850C065
:102DB00065280CD006DC452809D046281DD04728B8
:102DC0003DD13DE0662818D067287ED138E000214B
:102DD000112F01DB112000E0781CCDE9000106A9CC
:102DE0000EA8FFF7DDFCDDE90F010E9A039100212B
:102DF000009207F1010A04914DE04FF00040009766
:102E0000CDE9011006A90EA8FFF7CAFCDDE90F0203
:102E100003920E9B11990022DDF80CA000930492FE
:102E200011B9791C00EB010AB7EB0A0004D4C0F118
:102E3000FF3007F1010A0490AAEB0700019044E07B
:102E4000012F00DA01270021112F01DD112000E000
:102E50003846CDE9000106A90EA8FFF7A1FCDDE97F
:102E60000F010E9A0391002104910092BA462107A6
:102E70000CD40399514500DA8A46BAF1010F05DDF9
:102E8000009AAAF10101515C302908D0B84202DA57
:102E900010F1040F06DA0121CDE9011015E0AAF1C5
:102EA0000101E9E7002805DC049901440491AAEB3B
:102EB000000102E0411C514500DD8A460499401A98
:102EC000401C01904FF000400290200704D401986C
:102ED000504501DBCDF8048000208DF84F000298AA
:102EE0000DF14F07B0F1004F25D02B200E90029826
:102EF0004FF0020800280CDA404202902D200E907C
:102F000007E00A210298FDF791FA3031029007F8A4
:102F1000011DB8F10001A8F10108F2DC02980028B7
:102F2000EFD1791E0E980870307800F0200040F044
:102F3000450007F8020D12A8C01B00F107081498FD
:102F4000007800B1012000EB0A01019801EBE0716B
:102F500005984144401A401E0590E00306D45B46A4
:102F60002146179A059800F05DF8054414980078FA
:102F700018B15A46179990476D1CE00324D55B465B
:102F80002146179A059800F04DF805441CE0049876
:102F9000002807DBDDE90301884203DD0098405C7F
:102FA000179901E0179930205A469047049805F187
:102FB0000105401C04900198401E019004D12E2070
:102FC0005A46179990476D1CBAF10001AAF1010AFF
:102FD000DDDC05E017F8010B5A46179990476D1C88
:102FE000B8F10001A8F10108F4DC5B462146179A0C
:102FF0000598ABE62D0000002B000000200000002B
:103000002DE9F041044600251E461746880404D4E5
:1030100005E039462020B0476D1C641EF9D52846CE
:10302000BDE8F0812DE9F041044600251E4690469A
:10303000C80301D5302700E02027880404D505E027
:1030400041463846B0476D1C641EF9D52846BDE898
:10305000F0810A68531C0B601070704770B504460D
:103060000D460948008820F0400007490880E1B279
:103070000548FFF7A9FA00BF80210348FFF7DBF9F5
:103080000028F9D0204670BD0038014008B5002066
:10309000FEF7EAFA00909DF80000054908709DF8D7
:1030A000010000F0010048709DF80200887008BD22
:1030B0002800002010B50024FEF746FA04462046FA
:1030C00010BDFEF765FBFEF7D3FDFDF78DFF01E0B8
:1030D000FDF7D2FFFCE7FEF7C5F9FEF7E5F9FFF7CC
:1030E000F0FF00002DE9F04D1D460C4698B0174644
:1030F00021F0004123F00043002814BF4FF0010CE1
:103100004FF0000C0CEB440CFE4A0CEB02064FEAAD
:10311000620C66452BD33E0018BF012606EB450620
:103120001644F94A964222D3F84A53EA070C02D0D1
:10313000944205D148B918B000201146BDE8F08D81
:10314000002808BF4FF0000C01D04FF0010C0CEB31
:10315000440212F5001F0AD8002F14BF4FF0010CD3
:103160004FF0000C0CEB450212F5001F07D918B008
:103170003A462B462146BDE8F04DFFF7E3BA002260
:10318000DFF88CA3002CB8BF534526DADFF884C3E0
:103190006345A8BF022220DADFF870C39C451CDC1F
:1031A000DFF874C30CEB235CBCF1140F08DDCCF129
:1031B000340627FA06FC0CFA06F6BE420DD108E0EA
:1031C0005FB9CCF1140623FA06FC0CFA06F69E420F
:1031D00003D10CF00102C2F1020251EA000C19D134
:1031E000002D17DA002C18BF022A01D0012A07D0BF
:1031F0000220FFF7CFFA18B0BDE8F04DFFF79ABAFA
:103200000220FFF7C7FAFFF795FA18B081F00041E6
:10321000BDE8F08DB7F1000C6CD1534525D104F118
:10322000804212F5801201BF00280020B74918B073
:1032300008BFBDE8F08DB548884207DC002DA1BF6E
:103240006046294618B0BDE8F08D07E0281E05DA73
:1032500080F0004118B06046BDE8F08DAF49794478
:10326000D1E9000118B0BDE8F08DDFF8A0C26345D8
:1032700025D1002D1FDA19B1514512D1D8B909E075
:10328000002840F0EC82A24A214618B062F31E01E9
:10329000BDE8F08D0020214618B060F31E01BDE8A6
:1032A000F08D08DA18B02346BDE8F04D0246002044
:1032B0006146FDF790B918B02146BDE8F08D514543
:1032C00018DAB5F1804F0DD0A5F1005CBCF1FF5CC0
:1032D00010D1B4F1000C0DDB18B06146BDE8F04D23
:1032E00000F076BC234618B00246BDE8F04D194602
:1032F000FCF7F3BF060024F0004C3BD1D9B1514597
:1033000033D1002C06DD002DA1BF0020514618B09E
:10331000BDE8F08D002C01DD002D1BDB002C13DA45
:10332000002D11DB012A4FF0000014BF78497C49C1
:1033300018B0BDE8F08D022A18BF002C0AD0012A6F
:1033400008D1002C06DA0AE0002CB8BF002D11DAF3
:10335000012A04D0002018B00146BDE8F08D18B055
:1033600000204FF00041BDE8F08DA1F14050B0F1D8
:103370007F601AD0012000EBE47050EA020421D0F3
:10338000624C521E4FF0000B104304BF4FF0000B75
:10339000644C654883427CDD644A654893421FDD86
:1033A000884217DB002D25DB37E0002C00DA4AB11C
:1033B000022A0CBF01204FF0FF3018B0BDE8F04DDD
:1033C000FCF7FDBF0120FFF7E5F918B0BDE8F04DAF
:1033D000FFF7BAB94D4A8A4202DC002D0ADC1CE034
:1033E000814202DA002D18DA04E0484B994220DDD0
:1033F000002D12DD0220FFF7CDF9FFF7ABF90546EE
:103400000E460022534658462146FCF766FF18B088
:1034100066F31E012846BDE8F08D0220FFF7BAF9D9
:10342000FFF7A0F90A46214618B062F31E01BDE875
:10343000F08D002230466146FCF749FF80460E467B
:103440006FF00102FDF736F94FF05532394BFCF7BA
:1034500041FF42463346FCF740FF0022364BFCF763
:1034600039FF824642463346049110461946FCF71E
:1034700034FF5246049BFCF730FF8A4600904FF021
:10348000C0422E4B40463146FCF727FF2C4A2B4BBF
:1034900000E027E0CDE9060151460098FCF71DFF4A
:1034A00082460191274A284B40463146FCF715FFDA
:1034B0005246019BFCF70BFF82460B4602460591E4
:1034C000DDE90601FCF762FEDDE9062300268846F9
:1034D0003046FCF7FCFE5246059BFCF7FBFE02461D
:1034E00000F07EB90020B1F5801F07DA35223046A2
:1034F0006146FDF7DFF806466FF0340000EB21501F
:1035000024E00000FFFF1F00FFFF0F000000F03F5E
:103510000000F07F0000404301FCFFFF460A00006E
:103520000000F0FF0000F0BF0000E0410000F043A9
:10353000FFFFEF3F5555D53F0000E03F4715F73FF0
:10354000FE822B6544DF5DF80BAE543EA0F2FF30E7
:103550000190C1F3130040F07F6141F040510291AE
:10356000FE498842D8BF002004DDFD498142C8BF22
:10357000012001DD0D9008E000200D900198401C15
:1035800001900298A0F5801002900299F5487844C5
:103590000B910D9900EBC100D0E900230F93304649
:1035A0000A920B99FCF793FECDE90601DDE90A21A9
:1035B00030460F9BFCF7EAFD02460B460020EA4925
:1035C000FDF709F8059102460B460090DDE906017A
:1035D000FCF783FE1490E5488A464FF000087844D3
:1035E0000299006812904FF0005040EA61010D9876
:1035F0000F9B01EB804000F5002109910A9A129877
:10360000FCF765FE32460B9BFCF764FE42465346D0
:10361000FCF763FE0646029140465146099B129A0A
:10362000FCF75BFEDDE90623FCF754FE3246029B05
:10363000FCF74DFE059B009AFCF74FFE0091149A93
:103640000490534610461946FCF747FE06460246CC
:10365000C7480B46029106217844FFF715F8CDE9DB
:103660000510029B324610461946FCF736FEDDE98E
:103670000532FCF732FE0591064653464046194690
:10368000149AFCF783FD009B049AFCF726FE324651
:10369000059BFCF77BFDCDE90510424653461046DD
:1036A0001946FCF71AFE0022B24B02910A90FCF771
:1036B0006DFDDDE90532FCF769FD0E464246AD4B76
:1036C0004046FCF704FE029B0A9AFCF700FEDDE987
:1036D0000532FCF7FFFD424602910A903346104640
:1036E0005146FCF7FAFDCDE906015346149A0299BA
:1036F0000A98FCF7F2FD8A4602903346424600994A
:103700000498FCF7EAFD5346029AFCF73FFD824617
:103710000B4602460591DDE90601FCF737FDDDE9C0
:103720000623002088460646FCF7D1FD5246059B3D
:10373000FCF7D0FD824609914FF060428E4B304637
:103740004146FCF7CAFD049006918C4A8A4B5046CC
:103750000999FCF7C2FD82460291894A894B30469D
:103760004146FCF7BAFD5246029BFCF70FFD864B23
:103770007B440D9A03EBC203D3E90023FCF706FD5B
:103780000E9007910198FCF71AFE0591DDE90613EA
:1037900082460E9A0498FCF7F9FC7C4A7A440D9B09
:1037A00002EBC303D3E9002300930292FCF7EEFC83
:1037B0005246059BFCF7EAFC0026884652463046F6
:1037C000059BFCF784FD009B029AFCF780FD069B9D
:1037D000049AFCF77CFD079B0E9AFCF77BFD0246E2
:1037E00000200B46029038462946FCF776FD8246BB
:1037F00001912B4638461946029AFCF768FD32467D
:103800004346FCF76AFD5246019BFCF7BFFC0746A6
:103810008A463246434629460298FCF75EFD054635
:103820000E463A465346FCF7B1FC594A8846914247
:1038300021DBA8EB020353EA000210D12A463346EB
:10384000FCF745FDCDE90401524A534B3846514639
:10385000FCF79CFCDDE90423FCF75CFF21D202208D
:10386000FEF798FFFEF776FF0A46214618B062F38E
:103870001E01BDE8F08D494B28F000429A4210D35A
:10388000474A08EB020353EA00027FF4C6AD2A461A
:103890003346FCF71CFD3A465346FCF73BFF7FF6E8
:1038A000BCAD0022019228F000403E493E4A01EBA7
:1038B0002051824223DA481C4FF4801121FA00F093
:1038C00040443A4AC0F30A517A44394BA1F2FF31DD
:1038D000CB4020EA0303C0F3130040F48010C1F191
:1038E0001401C84012680190B8F1000FBCBF4042FB
:1038F000019028463146FCF7EAFC05460E462A466A
:10390000334638465146FCF741FC4FF0000842462A
:10391000284B40460591FCF7E0FCCDE90601264A1C
:10392000264B40460599FCF7D8FC009102902A46A8
:10393000334640460599FCF7CAFC3A465346FCF725
:10394000C9FC1F4A1F4BFCF7C8FC009B029AFCF7FE
:103950001DFC0746884602460B4635E08E9803005C
:103960007AB60B008E0600000000F03FC60600008D
:10397000F40500000000084009C7EE3FFD033ADCF3
:10398000F5015B14E02F3EBECC0400009004000063
:1039900000009040FE822B654715973C00CC90407C
:1039A00000346F3F01FCFFFF0000E03FDC0300003C
:1039B000FFFF0F00432EE63F396CA80C615C20BE70
:1039C000EF39FAFE422EE63FDDE90601FCF7DEFBA9
:1039D000DDE9062305460E46FCF779FC3A464346E8
:1039E000FCF778FC0F462A463346009010461946ED
:1039F000FCF773FC824602462E4888460B4605219A
:103A00007844FEF741FE52464346FCF766FC2A46E0
:103A10003346FCF75FFC80468A463B4628463146E3
:103A2000009AFCF75AFC3B46009AFCF7AFFB069164
:103A3000009000224FF0804340465146FCF747FC7F
:103A40000F460C904246534628463146FCF745FC4B
:103A50003B460C9AFCF7BFFD069B009AFCF737FC2F
:103A60002A463346FCF733FC0022134BFCF732FCAA
:103A7000054601980E4601EB00510815002810DCA0
:103A800028463146019AFCF715FEFEF7E9FD0428A9
:103A900008BFFEF767FE28463146019AFCF70AFE8A
:103AA00005460B4618B02A4658462146BDE8F04D5B
:103AB000FCF713BC7C0200000000F03F38B5FDF7B6
:103AC00073FF0446002C1FD10120FDF74AFF044676
:103AD000BCB96B464FF4967200210120FDF7CCFF74
:103AE000044654B909A0FEF799FDBDF80220BDF8BF
:103AF00000100EA0FEF792FD06E02046FEF796FAB3
:103B000002E02046FEF792FA38BD0000536561726C
:103B100063682066696E6765727072696E7420737F
:103B20007563636573730D0A000000004D61746373
:103B3000682049443A256420204D617463682073ED
:103B4000636F72653A25640D0A0000000FB400B57A
:103B5000A1B023A8009001A8009A2299FEF76EFD5B
:103B60000020009001A90348FEF741FD21B05DF857
:103B700014FB0000003801400FB400B5A1B023A829
:103B8000009001A8009A2299FEF758FD00200090AD
:103B900001A90348FEF72BFD21B05DF814FB0000DE
:103BA000004400400FB400B5A1B023A8009001A8C4
:103BB000009A2299FEF742FD0020009001A90348D7
:103BC000FEF715FD21B05DF814FB00000048004031
:103BD0002DE9F04106460F46FCF7C6FD041E0D46D2
:103BE00018BF0120284320F00040C0F17F6000F1A1
:103BF000E040C00F0ED0301C18BF0120384320F029
:103C00000040C0F17F6000F1E040C00F04BF012020
:103C1000FEF7C0FD20462946BDE8F0810000000007
:103C2000000000000000F03F000000000000F83F2E
:103C300000000000000000000000004003B8E23F68
:103C4000000000000000000006D0CF43EBFD4C3E1A
:103C5000033333333333E33FFFAB6FDBB66DDB3F0F
:103C60004D268F515555D53F01411DA96074D13F57
:103C700065DBC9934A86CD3FEF4E454A287ECA3F51
:103C80003E5555555555C53F93BDBE166CC166BFD3
:103C90002CDE25AF6A56113FF16BD2C541BDBBBECC
:103CA000D0A4BE726937663E00000000000000002C
:103CB000D03C0008000000204800000074270008E5
:103CC000183D000848000020300500008427000847
:103CD00000A24A04000000000000000001020304EA
:103CE00006070809000000000102030401020304A2
:103CF0000607080902040608000000000000000092
:103D00000000000000000000FFFFFFFF00000000B7
:083D10000000000000000000AB
:0400000508000131BD
:00000001FF
